:100000000C9462000C948A000C948A000C948A0070
:100010000C948A000C948A000C948A000C948A0038
:100020000C948A000C948A000C948A000C948A0028
:100030000C948A000C948A000C948A000C948A0018
:100040000C9463040C948A000C9401060C944F06E3
:100050000C948A000C948A000C948A000C948A00F8
:100060000C948A000C948A000000000024002700F1
:100070002A0000000000250028002B0000000000DE
:1000800023002600290004040404040404040202DA
:100090000202020203030303030301020408102007
:1000A0004080010204081020010204081020000012
:1000B0000007000201000003040600000000000029
:1000C0000000180811241FBECFEFD4E0DEBFCDBF63
:1000D00011E0A0E0B1E0EEEFF4E102C005900D9276
:1000E000A238B107D9F713E0A2E8B1E001C01D9230
:1000F000A931B107E1F710E0C4ECD0E004C02297C9
:10010000FE010E94420AC23CD107C9F70E946E0854
:100110000C947D0A0C940000A0E0B0E0E2E9F0E06D
:100120000C944E0AEC01A880B980CA80DB80A1142F
:10013000B104C104D10441F484E2A82E89EDB82EA3
:100140008BE5C82E87E0D82EC601B5012DE133EF2F
:1001500041E050E00E94110A27EA31E440E050E01B
:100160000E94BD097B018C01C601B5012DE133EF71
:1001700041E050E00E94110ACA01B9012CEE34EFAF
:100180004FEF5FEF0E94BD096E0D7F1D801F911F15
:1001900097FF04C061507040804090486883798325
:1001A0008A839B839B01AC015F77B901CA01CDB7FC
:1001B000DEB7EAE00C946A0A0E948C00089580E0A1
:1001C00091E00E948C0008956093000170930101FA
:1001D00080930201909303010895EF92FF920F9391
:1001E0001F93CF93DF93C0918201D091830167E089
:1001F00070E054E0E52EF12C01E010E0CB018370BB
:100200009070F701E81BF90B9801062E02C0220F2F
:10021000331F0A94E2F7DF01AA0FBB1FAA57BE4F94
:1002200040E050E0C9018C239D238217930711F40D
:1002300041E050E0CB01959587959595879502C053
:10024000440F551F8A95E2F7EE0FFF1FEA57FE4F46
:1002500080819181482B592B4D935C936150704064
:100260008FEF6F3F780751F6C0916302D09164021F
:100270006BE070E054E0E52EF12C01E010E0CB01E2
:1002800083709070F701E81BF90B9801062E02C0ED
:10029000220F331F0A94E2F7DF01AA0FBB1FAA57F0
:1002A000BE4F40E050E0C9018C239D238217930785
:1002B00011F441E050E0CB01959587959595879590
:1002C000039602C0440F551F8A95E2F7EE0FFF1FF9
:1002D000EA57FE4F80819181482B592B4D935C93B7
:1002E000615070408FEF6F3F780749F6DF91CF91F3
:1002F0001F910F91FF90EF90089587EF92E00E9479
:100300006E0718161906CCF787EF92E00E949F0738
:1003100008951F938091120161E00E94AC058091C5
:10032000040161E00E94AC058091120160E00E942E
:10033000AC0587EF92E040E855E260E070E00E9493
:100340008A0611E0812F61E00E946D051F5F1E305B
:10035000C9F78FE790E0909387018093860180E44E
:1003600090E0909389018093880190938B01809312
:100370008A0190938D0180938C0190938F018093DB
:100380008E011092940168EE73E080E090E00E948C
:10039000B704E5E9F1E01192119282E0ED35F8073A
:1003A000D1F710925E0210925D0210925F021092DD
:1003B0006002109261021092620210926402109226
:1003C00063021F9108956F927F928F929F92AF92D6
:1003D000BF92CF92DF92EF92FF920F931F93CF9332
:1003E000DF93EC01803991050CF09AC00E947D01E9
:1003F0009C01C038D105A1F480549040803491050F
:1004000008F473C0809182019091830120343105FA
:1004100014F48F7390708217930709F0FFC065C0C2
:10042000C138D10531F5E5E9F1E01192119282E090
:10043000ED35F807D1F710925E0210925D0210922E
:100440005F0210926002109261021092620210929A
:1004500064021092630285E00E944B050E94C90865
:1004600068EE73E080E090E00E94A7080E94B70465
:10047000D5C0C238D10569F4809182019091830181
:100480008217930709F0CAC08F3F910571F1019659
:100490000FC0C338D10589F4809182019091830106
:1004A0008217930709F0BAC080389105F1F00197DF
:1004B000909383018093820118C0C438D10509F05C
:1004C000ADC080918201909183018217930709F05A
:1004D000A5C00E947D019C01805890408038910504
:1004E00020F430938301209382018FE790E0909372
:1004F00087018093860180E490E090938901809346
:10050000880190938B0180938A0190938D01809351
:100510008C0190938F0180938E010E94ED007EC02C
:10052000803A91050CF07AC087EF92E00E940807AC
:1005300064E670E080E090E00E94B70410928701CA
:1005400010928601109289011092880110928B01FD
:1005500010928A0110928D0110928C0110928F01DD
:1005600010928E01CF70D070CC0FDD1FCC0FDD1F2D
:10057000C45EDE4FC880D980EA80FB8063E170E012
:1005800021E0822E912CA12CB12C94E0692E712CAB
:10059000A5019401062E04C0220F331F441F551FCE
:1005A0000A94D2F7CB0183709070F301E81BF90B2A
:1005B0008F01000F111F0A571E4FC0E0D0E0DA0173
:1005C000C9018C219D21AE21BF2182179307A40769
:1005D000B50711F4C1E0D0E0CB01959587959595CD
:1005E000879502C0CC0FDD1F8A95E2F7EE0FFF1F43
:1005F000EA57FE4F80819181C82BD92BF801D18316
:10060000C08361507040FFEF6F3F7F0709F0C0CF9C
:1006100087EF92E0B701A6010E948A06DF91CF9191
:100620001F910F91FF90EF90DF90CF90BF90AF9010
:100630009F908F907F906F9008950F931F93CF930B
:10064000DF9380915D0290915E02853691050CF4F6
:1006500095C087EF92E00E946E07181619060CF0FD
:1006600046C087EF92E00E949F07AC0190938501FE
:100670008093840187FF21C01092940180916502CC
:100680008823B9F48091820190918301481759071A
:1006900039F4109291011092900181E080939401BD
:1006A000109265024F3F510511F581E0809365027C
:1006B0001EC0CA010E94E30118C020919001309130
:1006C0009101253031058CF480919401882369F0E3
:1006D000F901EE0FFF1FEA57FE4F518340832F5F52
:1006E0003F4F3093910120939001109265028091C9
:1006F0005C0185B980915E018BB9C0E0D0E0FE015C
:10070000E05AFE4F20813181E0919201F0919301F6
:10071000EE0FFF1FEA57FE4F8081918182239323C2
:100720008217930739F4FE01EC5FFE4F808161E090
:100730000E94AC052296CE30D10509F7E0919201D6
:10074000F0919301EE0FFF1FEE5EFE4F808160E09F
:100750000E94AC0561E070E080E090E00E94B70488
:100760008091920190919301019665E070E00E9462
:10077000DC099093930180939201A0C08436910587
:1007800009F461C08C01000F111F0B561E4FF801B8
:1007900020813181442737FD4095542F80915F029D
:1007A00090916002A0916102B0916202821B930B52
:1007B000A40BB50B80935F0290936002A09361023B
:1007C000B093620280916E010E944B05F801918303
:1007D000808300915D0210915E02F801EE0FFF1F11
:1007E000EB56FE4F60817181882777FD8095982FA9
:1007F00020915F023091600240916102509162024B
:10080000620F731F841F951F60935F0270936002D5
:10081000809361029093620224E630E040E050E071
:100820000E94110A30936402209363020F5F1F4FEE
:1008300010935E0200935D0261E070E080E090E062
:100840000E94B7043BC08FE790E0909387018093AC
:10085000860180E490E090938901809388019093D1
:100860008B0180938A0190938D0180938C019093EA
:100870008F0180938E01809163029091640260E108
:1008800070E00E94DC09882777FD8095982F0E94F0
:1008900004090E943F090E94D108709561957F4F1D
:1008A00061507F4F709383016093820185E690E0F1
:1008B00090935E0280935D020E94ED00DF91CF91E4
:1008C0001F910F9108951F920F920FB60F9211244E
:1008D0002F933F934F935F936F937F938F939F9348
:1008E000AF93BF9320916A0230916B0240916C02EA
:1008F00050916D0270916E02DA01C9010296A11D3C
:10090000B11D672F6A5F6D3730F06D57DA01C9018D
:100910000396A11DB11D60936E0280936A029093AD
:100920006B02A0936C02B0936D028091660290916D
:100930006702A0916802B09169020196A11DB11DE4
:100940008093660290936702A0936802B093690255
:10095000BF91AF919F918F917F916F915F914F91D7
:100960003F912F910F900FBE0F901F9018959B01F4
:10097000AC017FB7F8948091660290916702A091D4
:100980006802B091690266B5A89B05C06F3F19F077
:100990000196A11DB11D7FBFBA2FA92F982F8827BF
:1009A000860F911DA11DB11D63E0880F991FAA1F1D
:1009B000BB1F6A95D1F7BC012DC0FFB7F894809199
:1009C000660290916702A0916802B0916902E6B553
:1009D000A89B05C0EF3F19F00196A11DB11DFFBFF7
:1009E000BA2FA92F982F88278E0F911DA11DB11DF9
:1009F000E3E0880F991FAA1FBB1FEA95D1F7861B5A
:100A0000970B885E9340C8F22150304040405040E0
:100A100068517C4F211531054105510571F6089546
:100A2000789484B5826084BD84B5816084BD85B5C9
:100A3000826085BD85B5816085BDEEE6F0E0808190
:100A400081608083E1E8F0E01082808182608083B1
:100A5000808181608083E0E8F0E080818160808334
:100A6000E1EBF0E0808184608083E0EBF0E0808166
:100A700081608083EAE7F0E0808184608083808108
:100A800082608083808181608083808180688083B0
:100A90001092C1000895982F8E3008F09E509770E4
:100AA000809170018295880F880F807C892B8093BC
:100AB0007C0080917A00806480937A0080917A0033
:100AC00086FDFCCF2091780040917900942F80E042
:100AD00030E0282B392BC9010895CF93DF93482F9D
:100AE00050E0CA0186569F4FFC0134914A575F4F30
:100AF000FA018491882369F190E0880F991FFC0125
:100B0000E859FF4FA591B491FC01EE58FF4FC591F4
:100B1000D491662351F42FB7F8948C91932F90952C
:100B200089238C93888189230BC0623061F42FB7AD
:100B3000F8948C91932F909589238C938881832BA3
:100B400088832FBF06C09FB7F8948C91832B8C931A
:100B50009FBFDF91CF910895482F50E0CA01825581
:100B60009F4FFC012491CA0186569F4FFC0194912E
:100B70004A575F4FFA013491332309F440C02223CE
:100B800051F1233071F0243028F42130A1F02230CB
:100B900011F514C02630B1F02730C1F02430D9F45B
:100BA00004C0809180008F7703C0809180008F7D8A
:100BB0008093800010C084B58F7702C084B58F7D8C
:100BC00084BD09C08091B0008F7703C08091B000D0
:100BD0008F7D8093B000E32FF0E0EE0FFF1FEE5803
:100BE000FF4FA591B4912FB7F894662321F48C910F
:100BF0009095892302C08C91892B8C932FBF0895E7
:100C000008951F920F920FB60F9211242F933F93C6
:100C10004F938F939F93EF93FF938091C00082FD3A
:100C20001DC04091C6002091AF023091B0022F5FED
:100C30003F4F2F7330708091B1029091B20228170C
:100C4000390771F0E091AF02F091B002E159FD4F28
:100C500040833093B0022093AF0202C08091C6005F
:100C6000FF91EF919F918F914F913F912F910F9015
:100C70000FBE0F901F901895E0910303F0910403AD
:100C8000E05CFF4F8191919120813181821B930B18
:100C90008F739070892B11F00E94000608951F92A7
:100CA0000F920FB60F9211242F933F938F939F9320
:100CB000EF93FF932091F3023091F4028091F502BB
:100CC0009091F6022817390731F48091C1008F7D89
:100CD0008093C10014C0E091F502F091F602ED544A
:100CE000FD4F20818091F5029091F60201968F735D
:100CF00090709093F6028093F5022093C600FF91C6
:100D0000EF919F918F913F912F910F900FBE0F9078
:100D10001F901895AF92BF92DF92EF92FF920F93C0
:100D20001F93CF93DF93EC017A018B01DD24D394E1
:100D300091E0A92EB12CEC89FD89DD2069F0C50177
:100D400008A002C0880F991F0A94E2F7808360E828
:100D500074E88EE190E005C0108260E472E48FE0F8
:100D600090E0A80197010E94EF09215030404040D7
:100D70005040569547953795279580E120303807A4
:100D800020F0DD2011F0DD24D6CFE889F989308309
:100D9000EA89FB89208319A2EE89FF89408121E03D
:100DA00030E0C9010C8C02C0880F991F0A94E2F749
:100DB000482B4083EE89FF894081C9010D8C02C018
:100DC000880F991F0A94E2F7482B4083EE89FF8928
:100DD0004081C9010E8C02C0880F991F0A94E2F766
:100DE000482B4083EE89FF8980810F8C02C0220F3F
:100DF000331F0A94E2F7209528232083DF91CF91B7
:100E00001F910F91FF90EF90DF90BF90AF900895EA
:100E1000CF93DF93DC011E968D919C911F97EC017F
:100E2000C05CDF4FFC01EE5BFF4F28813981808180
:100E3000918128173907C9F75696ED91FC9157977C
:100E4000408121E030E0C9015C960C905C9702C0C3
:100E5000880F991F0A94E2F7809584238083569621
:100E6000ED91FC9157974081C9015D960C905D977B
:100E700002C0880F991F0A94E2F78095842380832B
:100E80005696ED91FC9157974081C9015E960C9062
:100E90005E9702C0880F991F0A94E2F78095842319
:100EA00080835696ED91FC91579780815F960C90C8
:100EB0005F9702C0220F331F0A94E2F72095282380
:100EC00020831C96ED91FC911D97EE5BFF4F808176
:100ED000918192938293DF91CF910895DC011C96CA
:100EE000ED91FC911D97E05CFF4F21913191808144
:100EF0009181281B390B2F733070C9010895DC01D3
:100F00001C96ED91FC911D97E05CFF4F2081318193
:100F1000E054F040DF01AE5BBF4F8D919C91119783
:100F20002817390719F42FEF3FEF07C08D919C91D7
:100F3000E80FF91F8081282F30E0C9010895DC01F6
:100F40001C96ED91FC911D97E05CFF4F2081318153
:100F5000E054F040DF01AE5BBF4F8D919C91119743
:100F60002817390719F42FEF3FEF10C08D919C918E
:100F70001197E80FF91F20818D919C91119701968F
:100F80008F73907011969C938E9330E0C9010895F1
:100F9000DC0191968C919197882339F05496ED91CC
:100FA000FC915597808186FFF9CF91961C92089508
:100FB000CF93DF93EC01EE85FF85E05CFF4F20814E
:100FC0003181E054F0402F5F3F4F2F733070DF01CD
:100FD000AE5BBF4F8D919C91119728173907D1F3C4
:100FE000E05CFF4F80819181E054F040E80FF91FF1
:100FF0006083EE85FF85E05CFF4F31832083EE89BF
:10100000FF89208181E090E00F8C02C0880F991F3A
:101010000A94E2F7282B208381E089A3EC89FD89DB
:1010200080818064808381E090E0DF91CF9108959A
:101030001092FA021092F90288EE93E0A0E0B0E07C
:101040008093FB029093FC02A093FD02B093FE02FA
:1010500085E791E09093F8028093F7028FE692E0A3
:10106000909304038093030383EB92E09093060331
:101070008093050385EC90E0909308038093070329
:1010800084EC90E090930A038093090380EC90E055
:1010900090930C0380930B0381EC90E090930E03EC
:1010A00080930D0382EC90E09093100380930F03E4
:1010B00086EC90E0909312038093110384E0809378
:1010C000130383E08093140387E08093150385E086
:1010D0008093160381E0809317030895CF93DF93E5
:1010E0000E9410050E948901CCE3D6E00E941D03F6
:1010F0002097E1F30E943C06F9CFCF92DF92EF9266
:10110000FF920F931F93CF93DF937C016B018A01B2
:10111000C0E0D0E00FC0D6016D916D01D701ED9117
:10112000FC910190F081E02DC7010995C80FD91FEE
:10113000015010400115110571F7CE01DF91CF91DB
:101140001F910F91FF90EF90DF90CF900895EF9255
:10115000FF920F931F937B018C016115710581052F
:10116000910529F420E030E040E050E00BC00E94FF
:10117000DF00A80197010E94110AAC01CB01DA013E
:101180009C01AD01B901CA011F910F91FF90EF9031
:101190000895009729F0BC0180E090E00E94E400EF
:1011A000089504D06894B111E2C00895AED088F0DB
:1011B0009F5790F0B92F9927B751A0F0D1F0660F43
:1011C000771F881F991F1AF0BA95C9F712C0B1305E
:1011D00081F0CCD0B1E00895C9C0672F782F88275F
:1011E000B85F39F0B93FCCF3869577956795B3959D
:1011F000D9F73EF490958095709561957F4F8F4F0C
:101200009F4F0895E89409C097FB3EF49095809510
:10121000709561957F4F8F4F9F4F9923A9F0F92FBC
:1012200096E9BB279395F695879577956795B7953A
:10123000F111F8CFFAF4BB0F11F460FF1BC06F5F20
:101240007F4F8F4F9F4F16C0882311F096E911C032
:10125000772321F09EE8872F762F05C0662371F053
:1012600096E8862F70E060E02AF09A95660F771F67
:10127000881FDAF7880F9695879597F908955FD0BC
:1012800080F09F3740F491110EF071C060E070E083
:1012900080E89FEB089526F41B16611D711D811DCA
:1012A00001C01BC0882371F4772321F09850872B4D
:1012B000762F07C0662311F499270DC09051862B15
:1012C00070E060E02AF09A95660F771F881FDAF7C2
:1012D000880F9695879597F908959F3F49F091500B
:1012E00028F4869577956795B7959F5F80389F4FCF
:1012F000880F9695879597F9089557FD9058440F54
:10130000551F59F05F3F71F04795880F97FB991F64
:1013100061F09F3F79F08795089512161306140621
:10132000551FF2CF4695F1DF08C0161617061806AE
:10133000991FF1CF86957105610508940895E5DF41
:10134000A0F0BEE7B91788F4BB279F3860F41616E3
:10135000B11D672F782F8827985FF7CF86957795EF
:101360006795B11D93959639C8F30895E894BB2706
:1013700066277727CB0197F90895629FD001739F65
:10138000F001829FE00DF11D649FE00DF11D929F21
:10139000F00D839FF00D749FF00D659FF00D992760
:1013A000729FB00DE11DF91F639FB00DE11DF91F84
:1013B000BD01CF011124089597FB092E07260AD0FD
:1013C00077FD04D049D006D000201AF470956195BD
:1013D0007F4F0895F6F7909581959F4F0895A1E26C
:1013E0001A2EAA1BBB1BFD010DC0AA1FBB1FEE1F9F
:1013F000FF1FA217B307E407F50720F0A21BB30BEA
:10140000E40BF50B661F771F881F991F1A9469F765
:1014100060957095809590959B01AC01BD01CF01C1
:10142000089597FB092E05260ED057FD04D0D7DF6F
:101430000AD0001C38F450954095309521953F4FC7
:101440004F4F5F4F0895F6F7909580957095619591
:101450007F4F8F4F9F4F0895AA1BBB1B51E107C0C1
:10146000AA1FBB1FA617B70710F0A61BB70B881F34
:10147000991F5A95A9F780959095BC01CD010895C3
:10148000EE0FFF1F0590F491E02D09942F923F92EB
:101490004F925F926F927F928F929F92AF92BF9284
:1014A000CF92DF92EF92FF920F931F93CF93DF9330
:1014B000CDB7DEB7CA1BDB0B0FB6F894DEBF0FBE8D
:1014C000CDBF09942A88398848885F846E847D84DA
:1014D0008C849B84AA84B984C884DF80EE80FD80DC
:1014E0000C811B81AA81B981CE0FD11D0FB6F89452
:0E14F000DEBF0FBECDBFED010895F894FFCF13
:1014FE000100000006000B0009000A0003000400B2
:10150E000D0005000700080002000C0080250000F9
:10151E0040380000004B0000807000000096000074
:10152E0000E10000002C010000C20100400D03008C
:10153E0090D0030020A1070040420F00802500003C
:10154E008025000080250000802500001100A400E9
:10155E0001000200040008001000200040001500E9
:10156E000100000000D8077D086E079F077F07C89F
:02157E00070064
:00000001FF
