:200000000C9462000C948A000C948A000C948A000C948A000C948A000C948A000C948A00B8
:200020000C948A000C948A000C948A000C948A000C948A000C948A000C948A000C948A0070
:200040000C946E040C948A000C9400060C944E060C948A000C948A000C948A000C948A0022
:200060000C948A000C948A0000000000240027002A0000000000250028002B00000000003F
:20008000230026002900040404040404040402020202020203030303030301020408102071
:2000A0004080010204081020010204081020000000070002010000030406000000000000EB
:2000C0000000200811241FBECFEFD4E0DEBFCDBF11E0A0E0B1E0EEE0F5E102C005900D92AF
:2000E000A238B107D9F713E0A2E8B1E001C01D92A931B107E1F710E0C4ECD0E004C02297E9
:20010000FE010E944A0AC23CD107C9F70E9476080C94850A0C940000A0E0B0E0E2E9F0E0BA
:200120000C94560AEC01A880B980CA80DB80A114B104C104D10441F484E2A82E89EDB82EFB
:200140008BE5C82E87E0D82EC601B5012DE133EF41E050E00E94190A27EA31E440E050E093
:200160000E94C5097B018C01C601B5012DE133EF41E050E00E94190ACA01B9012CEE34EF81
:200180004FEF5FEF0E94C5096E0D7F1D801F911F97FF04C0615070408040904868837983C3
:2001A0008A839B839B01AC015F77B901CA01CDB7DEB7EAE00C94720A0E948C00089580E046
:2001C00091E00E948C00089560930001709301018093020190930301089581E090E090931C
:2001E000870180938601809182019091830160E470E00E94E4096AE070E00E94E4099C01BB
:200200008FE190E090938D0180938C012230310531F48DE190E090938D0180938C01C90107
:200220000597029730F487E190E090938D0180938C012130310509F447C02115310549F408
:2002400081E190E090938B0180938A018FE190E030C02730310539F480E190E090938B0175
:2002600080938A0126C02430310519F085E190E002C084E090E090938B0180938A0122305C
:20028000310519F487E190E014C02330310519F485E190E00EC02430310519F48CE190E0C1
:2002A00008C02530310519F02930310539F48DE190E0909389018093880108958FE190E082
:2002C00090938901809388010895809182019091830160E470E00E94E4099C018C339105EA
:2002E0004CF080918E0190918F01806290938F0180938E01223331054CF080918C019091B4
:200300008D01806290938D0180938C01283231054CF080918A0190918B01806290938B0176
:2003200080938A012E3131054CF080918A0190918B01806490938B0180938A012431310549
:200340004CF08091880190918901806490938901809388012A3031054CF08091860190916A
:200360008701806490938701809386010895109287011092860110928901109288011092E3
:200380008B0110928A0110928D0110928C0110928F0110928E010E94ED000E9465010895AE
:2003A00087EF92E00E94760718161906CCF787EF92E00E94A70708951F938091120161E03A
:2003C0000E94AB058091040161E00E94AB058091120160E00E94AB0587EF92E040E855E225
:2003E00060E070E00E94890611E0812F61E00E946C051F5F1E30C9F71092940168EE73E0DB
:2004000080E090E00E94B604E5E9F1E01192119282E0ED35F807D1F710925E0210925D027D
:2004200010925F0210926002109261021092620210926402109263021F9108956F927F923C
:200440008F929F92AF92BF92CF92DF92EF92FF920F931F93CF93DF93EC01803991050CF074
:2004600082C00E94D0019C01C038D105A1F4805490408034910508F473C0809182019091F5
:2004800083012034310514F48F7390708217930709F0E7C065C0C138D10531F5E5E9F1E0B8
:2004A0001192119282E0ED35F807D1F710925E0210925D0210925F0210926002109261029C
:2004C00010926202109264021092630285E00E944A050E94D10868EE73E080E090E00E941B
:2004E000AF080E94B604BDC0C238D10569F480918201909183018217930709F0B2C08F3F9A
:20050000910571F101960FC0C338D10589F480918201909183018217930709F0A2C08038B0
:200520009105F1F00197909383018093820118C0C438D10509F095C080918201909183013E
:200540008217930709F08DC00E94D0019C01805890408038910520F430938301209382018B
:200560000E94B7017EC0803A91050CF07AC087EF92E00E94100764E670E080E090E00E94B0
:20058000B6041092870110928601109289011092880110928B0110928A0110928D011092CA
:2005A0008C0110928F0110928E01CF70D070CC0FDD1FCC0FDD1FC45EDE4FC880D980EA80C4
:2005C000FB8063E170E011E0812E912CA12CB12CB4E06B2E712CA5019401062E04C0220FD7
:2005E000331F441F551F0A94D2F7CB0183709070F301E81BF90B8F01000F111F0A571E4F14
:20060000C0E0D0E0DA01C9018C219D21AE21BF2182179307A407B50711F4C1E0D0E0CB010F
:20062000959587959595879502C0CC0FDD1F8A95E2F7EE0FFF1FEA57FE4F80819181C82BEE
:20064000D92BF801D183C08361507040FFEF6F3F7F0709F0C0CF87EF92E0B701A6010E9412
:200660008906DF91CF911F910F91FF90EF90DF90CF90BF90AF909F908F907F906F90089568
:200680000F931F93CF93DF9380915D0290915E02853691050CF495C087EF92E00E94760794
:2006A000181619060CF046C087EF92E00E94A707AC01909385018093840187FF21C01092BC
:2006C0009401809165028823B9F480918201909183014817590739F4109291011092900129
:2006E00081E080939401109265024F3F510511F581E0809365021EC0CA010E941E0218C0E0
:200700002091900130919101253031058CF480919401882369F0F901EE0FFF1FEA57FE4FEC
:20072000518340832F5F3F4F30939101209390011092650280915C0185B980915E018BB904
:20074000C0E0D0E0FE01E05AFE4F20813181E0919201F0919301EE0FFF1FEA57FE4F8081AD
:200760009181822393238217930739F4FE01EC5FFE4F808161E00E94AB052296CE30D105F5
:2007800009F7E0919201F0919301EE0FFF1FEE5EFE4F808160E00E94AB0561E070E080E008
:2007A00090E00E94B6048091920190919301019665E070E00E94E4099093930180939201FC
:2007C00088C08436910509F461C08C01000F111F0B561E4FF80120813181442737FD409509
:2007E000542F80915F0290916002A0916102B0916202821B930BA40BB50B80935F02909307
:200800006002A0936102B093620280916E010E944A05F8019183808300915D0210915E02C7
:20082000F801EE0FFF1FEB56FE4F60817181882777FD8095982F20915F023091600240913E
:20084000610250916202620F731F841F951F60935F0270936002809361029093620224E6D6
:2008600030E040E050E00E94190A30936402209363020F5F1F4F10935E0200935D0261E000
:2008800070E080E090E00E94B60423C0809163029091640260E170E00E94E409882777FDB9
:2008A0008095982F0E940C090E9447090E94D908709561957F4F61507F4F7093830160936E
:2008C000820185E690E090935E0280935D020E94B701DF91CF911F910F9108951F920F925C
:2008E0000FB60F9211242F933F938F939F93AF93BF9380916A0290916B02A0916C02B091F6
:200900006D0230916E020196A11DB11D232F2D5F2D3720F02D570196A11DB11D20936E02F8
:2009200080936A0290936B02A0936C02B0936D028091660290916702A0916802B09169020B
:200940000196A11DB11D8093660290936702A0936802B0936902BF91AF919F918F913F9172
:200960002F910F900FBE0F901F9018959B01AC017FB7F8948091660290916702A0916802A7
:20098000B091690266B5A89B05C06F3F19F00196A11DB11D7FBFBA2FA92F982F8827860FA4
:2009A000911DA11DB11D62E0880F991FAA1FBB1F6A95D1F7BC012DC0FFB7F894809166029D
:2009C00090916702A0916802B0916902E6B5A89B05C0EF3F19F00196A11DB11DFFBFBA2FA2
:2009E000A92F982F88278E0F911DA11DB11DE2E0880F991FAA1FBB1FEA95D1F7861B970B94
:200A0000885E9340C8F2215030404040504068517C4F211531054105510571F608957894D6
:200A200084B5826084BD84B5816084BD85B5826085BD85B5816085BDEEE6F0E080818160BE
:200A40008083E1E8F0E01082808182608083808181608083E0E8F0E0808181608083E1EB54
:200A6000F0E0808184608083E0EBF0E0808181608083EAE7F0E080818460808380818260D2
:200A800080838081816080838081806880831092C1000895982F8E3008F09E5097708091FF
:200AA00070018295880F880F807C892B80937C0080917A00806480937A0080917A0086FD37
:200AC000FCCF2091780040917900942F80E030E0282B392BC9010895CF93DF93482F50E00C
:200AE000CA0186569F4FFC0134914A575F4FFA018491882369F190E0880F991FFC01E8593E
:200B0000FF4FA591B491FC01EE58FF4FC591D491662351F42FB7F8948C91932F90958923D0
:200B20008C93888189230BC0623061F42FB7F8948C91932F909589238C938881832B88832C
:200B40002FBF06C09FB7F8948C91832B8C939FBFDF91CF910895482F50E0CA0182559F4F13
:200B6000FC012491CA0186569F4FFC0194914A575F4FFA013491332309F440C0222351F123
:200B8000233071F0243028F42130A1F0223011F514C02630B1F02730C1F02430D9F404C03F
:200BA000809180008F7703C0809180008F7D8093800010C084B58F7702C084B58F7D84BD54
:200BC00009C08091B0008F7703C08091B0008F7D8093B000E32FF0E0EE0FFF1FEE58FF4FA1
:200BE000A591B4912FB7F894662321F48C919095892302C08C91892B8C932FBF08950895A2
:200C00001F920F920FB60F9211242F933F934F938F939F93EF93FF938091C00082FD1DC0DC
:200C20004091C6002091AF023091B0022F5F3F4F2F7330708091B1029091B20228173907D2
:200C400071F0E091AF02F091B002E159FD4F40833093B0022093AF0202C08091C600FF9193
:200C6000EF919F918F914F913F912F910F900FBE0F901F901895E0910303F0910403E05C92
:200C8000FF4F8191919120813181821B930B8F739070892B11F00E94FF0508951F920F92F8
:200CA0000FB60F9211242F933F938F939F93EF93FF932091F3023091F4028091F502909117
:200CC000F6022817390731F48091C1008F7D8093C10014C0E091F502F091F602ED54FD4F84
:200CE00020818091F5029091F60201968F7390709093F6028093F5022093C600FF91EF91EB
:200D00009F918F913F912F910F900FBE0F901F901895AF92BF92DF92EF92FF920F931F9323
:200D2000CF93DF93EC017A018B01DD24403081EE580780E0680780E0780711F0DD24D39495
:200D400091E0A92EB12CEC89FD89DD2069F0C50108A002C0880F991F0A94E2F7808360E0E4
:200D600079E08DE390E005C0108260E874E88EE190E0A80197010E94F7092150304040401C
:200D80005040569547953795279580E12030380720F0DD2011F0DD24D6CFE889F98930832A
:200DA000EA89FB89208319A2EE89FF89408121E030E0C9010C8C02C0880F991F0A94E2F723
:200DC000482B4083EE89FF894081C9010D8C02C0880F991F0A94E2F7482B4083EE89FF89FD
:200DE0004081C9010E8C02C0880F991F0A94E2F7482B4083EE89FF8980810F8C02C0220F82
:200E0000331F0A94E2F7209528232083DF91CF911F910F91FF90EF90DF90BF90AF9008959E
:200E2000CF93DF93DC011E968D919C911F97EC01C05CDF4FFC01EE5BFF4F2881398180811D
:200E4000918128173907C9F75696ED91FC915797408121E030E0C9015C960C905C9702C07D
:200E6000880F991F0A94E2F78095842380835696ED91FC9157974081C9015D960C905D97FA
:200E800002C0880F991F0A94E2F78095842380835696ED91FC9157974081C9015E960C900B
:200EA0005E9702C0880F991F0A94E2F78095842380835696ED91FC91579780815F960C907F
:200EC0005F9702C0220F331F0A94E2F72095282320831C96ED91FC911D97EE5BFF4F8081B4
:200EE000918192938293DF91CF910895DC011C96ED91FC911D97E05CFF4F219131918081EC
:200F00009181281B390B2F733070C9010895DC011C96ED91FC911D97E05CFF4F2081318164
:200F2000E054F040DF01AE5BBF4F8D919C9111972817390719F42FEF3FEF07C08D919C9179
:200F4000E80FF91F8081282F30E0C9010895DC011C96ED91FC911D97E05CFF4F2081318188
:200F6000E054F040DF01AE5BBF4F8D919C9111972817390719F42FEF3FEF10C08D919C9130
:200F80001197E80FF91F20818D919C91119701968F73907011969C938E9330E0C9010895FF
:200FA000DC0191968C919197882339F05496ED91FC915597808186FFF9CF91961C92089573
:200FC000CF93DF93EC01EE85FF85E05CFF4F20813181E054F0402F5F3F4F2F733070DF01DA
:200FE000AE5BBF4F8D919C91119728173907D1F3E05CFF4F80819181E054F040E80FF91F94
:201000006083EE85FF85E05CFF4F31832083EE89FF89208181E090E00F8C02C0880F991FF8
:201020000A94E2F7282B208381E089A3EC89FD8980818064808381E090E0DF91CF91089595
:201040001092FA021092F90288EE93E0A0E0B0E08093FB029093FC02A093FD02B093FE02B6
:2010600085E791E09093F8028093F7028FE692E0909304038093030383EB92E09093060334
:201080008093050385EC90E0909308038093070384EC90E090930A038093090380EC90E0FE
:2010A00090930C0380930B0381EC90E090930E0380930D0382EC90E09093100380930F0370
:2010C00086EC90E0909312038093110384E08093130383E08093140387E08093150385E0BE
:2010E0008093160381E0809317030895CF93DF930E940F050E94DC01CBE3D6E00E94400347
:201100002097E1F30E943B06F9CFCF92DF92EF92FF920F931F93CF93DF937C016B018A0119
:20112000C0E0D0E00FC0D6016D916D01D701ED91FC910190F081E02DC7010995C80FD91F26
:20114000015010400115110571F7CE01DF91CF911F910F91FF90EF90DF90CF900895EF9271
:20116000FF920F931F937B018C01611571058105910529F420E030E040E050E00BC00E948F
:20118000DF00A80197010E94190AAC01CB01DA019C01AD01B901CA011F910F91FF90EF90E8
:2011A0000895009729F0BC0180E090E00E94E400089504D06894B111E2C00895AED088F06B
:2011C0009F5790F0B92F9927B751A0F0D1F0660F771F881F991F1AF0BA95C9F712C0B13062
:2011E00081F0CCD0B1E00895C9C0672F782F8827B85F39F0B93FCCF3869577956795B395DD
:20120000D9F73EF490958095709561957F4F8F4F9F4F0895E89409C097FB3EF4909580951D
:20122000709561957F4F8F4F9F4F9923A9F0F92F96E9BB279395F695879577956795B79518
:20124000F111F8CFFAF4BB0F11F460FF1BC06F5F7F4F8F4F9F4F16C0882311F096E911C094
:20126000772321F09EE8872F762F05C0662371F096E8862F70E060E02AF09A95660F771F1C
:20128000881FDAF7880F9695879597F908955FD080F09F3740F491110EF071C060E070E0C1
:2012A00080E89FEB089526F41B16611D711D811D01C01BC0882371F4772321F09850872BB9
:2012C000762F07C0662311F499270DC09051862B70E060E02AF09A95660F771F881FDAF799
:2012E000880F9695879597F908959F3F49F0915028F4869577956795B7959F5F80389F4FBC
:20130000880F9695879597F9089557FD9058440F551F59F05F3F71F04795880F97FB991FBA
:2013200061F09F3F79F087950895121613061406551FF2CF4695F1DF08C0161617061806F2
:20134000991FF1CF86957105610508940895E5DFA0F0BEE7B91788F4BB279F3860F4161667
:20136000B11D672F782F8827985FF7CF869577956795B11D93959639C8F30895E894BB2758
:2013800066277727CB0197F90895629FD001739FF001829FE00DF11D649FE00DF11D929F09
:2013A000F00D839FF00D749FF00D659FF00D9927729FB00DE11DF91F639FB00DE11DF91F87
:2013C000BD01CF011124089597FB092E07260AD077FD04D049D006D000201AF4709561957D
:2013E0007F4F0895F6F7909581959F4F0895A1E21A2EAA1BBB1BFD010DC0AA1FBB1FEE1FEE
:20140000FF1FA217B307E407F50720F0A21BB30BE40BF50B661F771F881F991F1A9469F752
:2014200060957095809590959B01AC01BD01CF01089597FB092E05260ED057FD04D0D7DF54
:201440000AD0001C38F450954095309521953F4F4F4F5F4F0895F6F790958095709561959C
:201460007F4F8F4F9F4F0895AA1BBB1B51E107C0AA1FBB1FA617B70710F0A61BB70B881F59
:20148000991F5A95A9F780959095BC01CD010895EE0FFF1F0590F491E02D09942F923F9232
:2014A0004F925F926F927F928F929F92AF92BF92CF92DF92EF92FF920F931F93CF93DF9358
:2014C000CDB7DEB7CA1BDB0B0FB6F894DEBF0FBECDBF09942A88398848885F846E847D842B
:2014E0008C849B84AA84B984C884DF80EE80FD800C811B81AA81B981CE0FD11D0FB6F89412
:20150000DEBF0FBECDBFED010895F894FFCF0100000006000B0009000A00030004000D00B7
:2015200005000700080002000C008025000040380000004B0000807000000096000000E1BA
:201540000000002C010000C20100400D030090D0030020A1070040420F0080250000802545
:20156000000080250000802500001100A400010002000400080010002000400015000100D7
:20158000000000E00785087607A7078707D00700FFFFFFFFFFFFFFFFFFFFFFFFFFFFFFFF57
:2015A000FFFFFFFFFFFFFFFFFFFFFFFFFFFFFFFFFFFFFFFFFFFFFFFFFFFFFFFFFFFFFFFF4B
:2015C000FFFFFFFFFFFFFFFFFFFFFFFFFFFFFFFFFFFFFFFFFFFFFFFFFFFFFFFFFFFFFFFF2B
:2015E000FFFFFFFFFFFFFFFFFFFFFFFFFFFFFFFFFFFFFFFFFFFFFFFFFFFFFFFFFFFFFFFF0B
:20160000FFFFFFFFFFFFFFFFFFFFFFFFFFFFFFFFFFFFFFFFFFFFFFFFFFFFFFFFFFFFFFFFEA
:203800000C94341C0C94511C0C94511C0C94511C0C94511C0C94511C0C94511C0C94511C5D
:203820000C94511C0C94511C0C94511C0C94511C0C94511C0C94511C0C94511C0C94511C20
:203840000C94511C0C94511C0C94511C0C94511C0C94511C0C94511C0C94511C0C94511C00
:203860000C94511C0C94511C11241FBECFEFD4E0DEBFCDBF11E0A0E0B1E0E4EAFFE302C00D
:2038800005900D92A230B107D9F712E0A2E0B1E001C01D92AD30B107E1F70E94361D0C9423
:2038A000D01F0C94001C982F9595959595959595905D8F708A307CF0282F295A8091C00031
:2038C00085FFFCCF9093C6008091C00085FFFCCF2093C6000895282F205DF0CF982F80910F
:2038E000C00085FFFCCF9093C6000895EF92FF920F931F93EE24FF2487018091C00087FDBB
:2039000017C00894E11CF11C011D111D81E4E81682E4F8068FE0080780E0180770F3E09146
:203920000401F091050109958091C00087FFE9CF8091C6001F910F91FF90EF9008950E94DA
:20394000761C982F8091C00085FFFCCF9093C60091362CF490330CF09053892F089597553B
:20396000892F08951F930E949F1C182F0E949F1C1295107F810F1F910895882351F0982F79
:2039800091508091C00087FFFCCF8091C6009923B9F708951F93182F0E94761C803249F02C
:2039A000809103018F5F809303018530C1F01F9108958091C00085FFFCCF84E18093C600DC
:2039C0008091C00085FFFCCF1093C6008091C00085FFFCCF80E18093C6001F910895E09146
:2039E0000401F091050109951F9108950E94761C803241F0809103018F5F8093030185306A
:203A000081F008958091C00085FFFCCF84E18093C6008091C00085FFFCCF80E18093C600E0
:203A20000895E0910401F09105010995089510920A028823D1F090E040E951E02D9A28EEF0
:203A400033E0FA013197F1F721503040D1F72D9828EE33E0FA013197F1F721503040D1F7BD
:203A60009F5F981758F380930A0208953F924F925F926F927F928F929F92AF92BF92CF9298
:203A8000DF92EF92FF920F931F93CF93DF93000083E38093C4001092C50088E18093C1009A
:203AA00086E08093C2005098589A259A81E00E94171D44E1F42E3EE1E32E24E9D22E96E001
:203AC000C92E80E1B82EAA24A39401E4902E16E5812EB2E57B2EA0E26A2EF9E45F2EE3E5CA
:203AE0004E2E70E5372E0E94761C8033B1F1813309F441C0803409F479C0813409F48CC06D
:203B0000823471F1853409F47BC0803531F1823521F1813511F1853509F48DC0863509F488
:203B20009DC0843609F4AEC0843709F41BC1853709F485C1863709F47AC0809103018F5F79
:203B400080930301853079F6E0910401F091050109950E94761C803351F60E94F61CC3CF1B
:203B600093E18091C00087FFFCCF8091C6009923A1F39150F6CF0E94761C8032F1F6809104
:203B8000C00085FFFCCFF092C6008091C00085FFFCCF9092C6008091C00085FFFCCF809294
:203BA000C6008091C00085FFFCCF7092C6008091C00085FFFCCF6092C6008091C00085FF2A
:203BC000FCCF5092C6008091C00085FFFCCF4092C6008091C00085FFFCCF3092C600809101
:203BE000C00085FFFCCFB092C6007DCF0E94761C863808F4B2CF0E94761C0E94F61C73CFC9
:203C000094E08091C00087FFFCCF8091C600992309F4A3CF9150F5CF0E94761C8038D1F0BA
:203C2000813861F1823809F499C0883979F080E00E94CA1C58CF0E94761C809306010E9440
:203C4000761C809307010E94F61C4DCF83E00E94CA1C49CF82E00E94CA1C45CF0E94761CB2
:203C6000803309F486C192E08091C00087FFFCCF8091C6009923D9F29150F6CF81E00E94B2
:203C8000CA1C31CF0E94761C809309020E94761C8093080280910C028E7F80930C020E94AC
:203CA000761C853429F480910C02816080930C028091080290910902892B89F000E010E037
:203CC0000E94761CF801E85FFE4F80830F5F1F4F80910802909109020817190788F30E94A1
:203CE000761C803209F029CF80910C0280FFD1C04091060150910701440F551F50930701ED
:203D000040930601A0910802B09109021097C9F0E8E0F1E09A01BD016E0F7F1FF999FECF76
:203D200032BD21BD819180BDFA9AF99A2F5F3F4FE617F70799F74A0F5B1F50930701409308
:203D400006018091C00085FFFCCFF092C6008091C00085FFFCCFB092C600C5CE80E10E9436
:203D6000CA1CC1CE0E94761C809309020E94761C809308028091060190910701880F991F9B
:203D800090930701809306010E94761C853409F47AC080910C028E7F80930C020E94761C39
:203DA000803209F0A0CE8091C00085FFFCCFF092C600A0910802B09109021097B9F1809199
:203DC0000C02182F1170082F0270E0910601F09107019F012F5F3F4FB90140E050E0112369
:203DE000B1F4002339F494918091C00085FFFCCF9093C6004F5F5F4FCB010196F9014A1786
:203E00005B0780F4BC012F5F3F4F112351F3F999FECFF2BDE1BDF89A90B58091C00085FFA3
:203E2000FCCFE6CF70930701609306018091C00085FDD9CE8091C00085FFF8CFD4CE0E94A3
:203E4000761C803209F079CE8091C00085FFFCCFF092C6008091C00085FFFCCFE092C6001E
:203E60008091C00085FFFCCFD092C6008091C00085FFFCCFC092C6008091C00085FFFCCFA2
:203E8000B092C60030CE80910C02816080930C0285CF809107018823880F880B8A218093FB
:203EA0000B028091060190910701880F991F90930701809306018091080280FF09C08091AC
:203EC00008029091090201969093090280930802F894F999FECF1127E0910601F0910701A6
:203EE000C8E0D1E08091080290910902103091F40091570001700130D9F303E0009357003A
:203F0000E8950091570001700130D9F301E100935700E895099019900091570001700130B9
:203F2000D9F301E000935700E8951395103498F011270091570001700130D9F305E00093F3
:203F40005700E8950091570001700130D9F301E100935700E8953296029709F0C7CF1030BE
:203F600011F00296E5CF11248091C00085FFE9CEECCE0E94761C0E94761C182F0E94761C16
:203F8000112351F0113021F086E00E94CA1CABCD84E90E94CA1CA7CD8EE10E94CA1CA3CD24
:063FA000F894FFCF800041
:00000001FF
