:100000000C9462000C948A000C948A000C948A0070
:100010000C948A000C948A000C948A000C948A0038
:100020000C948A000C948A000C948A000C948A0028
:100030000C948A000C948A000C948A000C948A0018
:100040000C9499050C948A000C94D7060C942507FF
:100050000C948A000C948A000C948A000C948A00F8
:100060000C948A000C948A000000000024002700F1
:100070002A0000000000250028002B0000000000DE
:1000800023002600290004040404040404040202DA
:100090000202020203030303030301020408102007
:1000A0004080010204081020010204081020000012
:1000B0000007000201000003040600000000000029
:1000C0000000F70811241FBECFEFD4E0DEBFCDBF84
:1000D00011E0A0E0B1E0ECEBF6E102C005900D927A
:1000E000A237B107D9F713E0A2E7B1E001C01D9232
:1000F000A131B107E1F710E0C4ECD0E004C02297D1
:10010000FE010E94210BC23CD107C9F70E944D0994
:100110000C945C0B0C940000A0E0B0E0E2E9F0E08D
:100120000C942D0BEC01A880B980CA80DB80A1144F
:10013000B104C104D10441F484E2A82E89EDB82EA3
:100140008BE5C82E87E0D82EC601B5012DE133EF2F
:1001500041E050E00E94F00A27EA31E440E050E03C
:100160000E949C0A7B018C01C601B5012DE133EF91
:1001700041E050E00E94F00ACA01B9012CEE34EFD0
:100180004FEF5FEF0E949C0A6E0D7F1D801F911F35
:1001900097FF04C061507040804090486883798325
:1001A0008A839B839B01AC015F77B901CA01CDB7FC
:1001B000DEB7EAE00C94490B0E948C00089584E0BD
:1001C00091E00E948C0008956093040170930501F2
:1001D0008093060190930701089581E090E0909349
:1001E0007E0180937D01809172019091730160E4A2
:1001F00070E00E94BB0A6AE070E00E94BB0A9C01AA
:100200008FE190E090938401809383012230310547
:1002100031F48DE190E09093840180938301C901D2
:100220000597029730F487E190E0909384018093E2
:1002300083012130310509F447C02115310549F406
:1002400081E190E090938201809381018FE190E0C1
:1002500030C02730310539F480E190E0909382017D
:100260008093810126C02430310519F085E190E0AA
:1002700002C084E090E0909382018093810122305B
:10028000310519F487E190E014C02330310519F4E9
:1002900085E190E00EC02430310519F48CE190E046
:1002A00008C02530310519F02930310539F48DE1C8
:1002B00090E09093800180937F0108958FE190E01A
:1002C0009093800180937F010895809172019091B5
:1002D000730160E470E00E94BB0A9C018C339105BD
:1002E0004CF0809185019091860180629093860107
:1002F00080938501223331054CF0809183019091E8
:1003000084018062909384018093830128323105B7
:100310004CF08091810190918201806290938201E2
:10032000809381012E3131054CF0809181019091B3
:100330008201806490938201809381012431310590
:100340004CF080917F0190918001806490938001B6
:1003500080937F012A3031054CF080917D0190918E
:100360007E01806490937E0180937D0108951092B8
:100370007E0110927D011092800110927F011092F7
:1003800082011092810110928401109283011092D7
:100390008601109285010E94ED000E94650108957A
:1003A0008FEE92E00E944D0818161906CCF78FEEDA
:1003B00092E00E947E080895BC018DE592E00E94C3
:1003C000860590E0089580E090E00E94DC010097AF
:1003D00021F0909373018093720108959C01462F40
:1003E0008DE592E0B9010E948D050895BC018DE56F
:1003F00092E040E00E948D050895CF93DF93C0E026
:10040000D0E08DE592E0BE0140E00E948D0521968E
:1004100082E0C030D807A9F7DF91CF9108956F929D
:100420007F928F929F92AF92BF92CF92DF92EF9284
:10043000FF920F931F93CF93DF938C018FEE92E087
:100440000E94E70764E670E080E090E00E94E1052A
:1004500010927E0110927D011092800110927F0116
:1004600010928201109281011092840110928301F6
:10047000109286011092850110937501009374010A
:100480000F701070000F111F000F111F0E5E1E4F16
:10049000F801C080D180E280F380809176018823CA
:1004A00009F448C0C3E1D0E0E1E08E2E912CA12CEC
:1004B000B12C74E0672E712CA50194010C2E04C0A0
:1004C000220F331F441F551F0A94D2F7CE018370A9
:1004D0009070F301E81BF90B8F01000F111F0358F7
:1004E0001E4F60E070E0DA01C9018C219D21AE2130
:1004F000BF2182179307A407B50711F461E070E0EC
:10050000CE01959587959595879502C0660F771FC3
:100510008A95E2F7EE0FFF1FE358FE4F808191812D
:10052000682B792BF801718360832197FFEFCF3F10
:10053000DF0711F68FEE92E0B701A6010E94600777
:10054000DF91CF911F910F91FF90EF90DF90CF90AF
:10055000BF90AF909F908F907F906F9008951F9362
:10056000109276018BB180668BB95D9883E090E044
:100570000E94DC010E940F0211E0812F61E00E94C5
:1005800097061F5F1E30C9F70E94E30110928B018E
:1005900068EE73E080E090E00E94E105ECE8F1E0B5
:1005A0001192119282E0E435F807D1F710925502CA
:1005B0001092540210925602109257021092580252
:1005C0001092590210925B0210925A02109273011B
:1005D0001092720181E0809376011F910895CF936C
:1005E000DF93EC01803991050CF0BDC00E94D00171
:1005F0009C01C038D105A1F480549040803491050D
:1006000008F493C0809172019091730120343105F8
:1006100014F48F7390708217930709F000C185C09E
:10062000C138D10551F5ECE8F1E01192119282E068
:10063000E435F807D1F71092550210925402109247
:1006400056021092570210925802109259021092BC
:100650005B0210925A02109273011092720185E0AF
:100660000E9475060E94A80968EE73E080E090E0A1
:100670000E9486090E94E105D2C0C238D10571F4FA
:1006800080917201909173018217930709F050C015
:100690008F3F910509F449C0019643C0C338D10585
:1006A00069F480917201909173018217930709F0A8
:1006B00053C080389105C9F1019733C0C438D105C2
:1006C000A9F480917201909173018217930709F048
:1006D000A6C00E94D0019C018058904080389105AE
:1006E00020F530937301209372011FC0C538D105E6
:1006F000F9F480917201909173018217930709F0C8
:100700008EC080E090E00E94F601609172017091CD
:10071000730180E090E00E94EE0180E090E00E9492
:10072000DC0190937301809372010E94B70177C03E
:10073000C638D10589F480917201909173018217B6
:10074000930709F06CC080E090E00E94F6011092DF
:1007500073011092720163C0CF38D10509F05FC0F8
:100760000E94FD015CC0803A9105ECF48E39910540
:100770000CF453C08E39910589F483E090E00E9417
:10078000F601609174017091750183E090E00E9420
:10079000EE0183E090E00E94DC013FC083E090E046
:1007A0000E94F6013CC0803B9105CCF50E94D0012F
:1007B000209172013091730128173907C1F468EC58
:1007C00070E080E090E00E94E105C03AD10539F583
:1007D000E091EF02F091F0020280F381E02D8FEEC4
:1007E00092E060E071E043E050E0099518C08FEEC0
:1007F00092E00E94E70781E060E00E94970664EFC4
:1008000071E080E090E00E94E10581E061E00E94FB
:10081000970680917401909175010E940F02DF91FB
:10082000CF9108950F931F93CF93DF93809154023C
:1008300090915502853691050CF4D0C08FEE92E070
:100840000E944D0890937A0180937901C0E0D0E036
:1008500001E060C08FEE92E00E947E089C019093C0
:100860007C0180937B0180389105E4F480918B01B9
:10087000882309F443C08091870190918801FC018D
:10088000EE0FFF1FE358FE4F3183208301969093B4
:1008900088018093870110928B0105977CF5009366
:1008A0008B012CC010928B0180915C02882359F53A
:1008B00080917201909173012817390731F41092D9
:1008C00088011092870100938B014091770150912C
:1008D0007801FA01EA5AFE4F808190E02817390723
:1008E00019F0E0E0F0E002C0FA013196F0937801EF
:1008F000E0937701399769F400935C0210927801D4
:100900001092770106C0C9010E94EF0210925C02AA
:1009100009C021968091790190917A01C817D90771
:100920000CF498CF8091520185B9809154018BB914
:100930004BB16091890170918A01DB01AA0FBB1F45
:10094000FD01E358FE4F20813181C9018170907013
:10095000E6E0880F991FEA95E1F7482B4BB945B1BE
:10096000C90182709070880F991F880F991F482BBA
:1009700045B945B1C9018C74907095958795482B00
:1009800045B98BB12073307035952795822B8BB983
:10099000A85FBE4F81E090E00C9002C0880F991FC5
:1009A0000A94E2F72FEF30E0281B390B6230710513
:1009B00019F06430710521F485B1822385B903C033
:1009C0008BB182238BB9CB01019665E070E00E9468
:1009D000BB0A90938A018093890193C08436910564
:1009E00009F461C08C01000F111F04571E4FF8015C
:1009F00020813181442737FD4095542F8091560244
:100A000090915702A0915802B0915902821B930B0A
:100A1000A40BB50B8093560290935702A0935802F3
:100A2000B093590280915F010E947506F80191838D
:100A300080830091540210915502F801EE0FFF1FC0
:100A4000E457FE4F60817181882777FD8095982F4C
:100A5000209156023091570240915802509159020C
:100A6000620F731F841F951F609356027093570285
:100A7000809358029093590224E630E040E050E021
:100A80000E94F00A30935B0220935A020F5F1F4FBF
:100A9000109355020093540261E070E080E090E012
:100AA0000E94E1052EC00E94E301809172019091A5
:100AB0007301892BD9F480915A0290915B0260E115
:100AC00070E00E94BB0A882777FD8095982F0E94CE
:100AD000E3090E941E0A0E94B009709561957F4F3C
:100AE00061507F4F70937301609372018091540243
:100AF00090915502019690935502809354020E9462
:100B0000B701DF91CF911F910F910895F999FECF11
:100B100072BD61BDF89A80B50895F999FECF1FBAEC
:100B200072BD61BD40BD0FB6F894FA9AF99A0FBE36
:100B300008951F920F920FB60F9211242F933F9397
:100B40008F939F93AF93BF938091620290916302C2
:100B5000A0916402B0916502309166020196A11DD8
:100B6000B11D232F2D5F2D3720F02D570196A11D8C
:100B7000B11D209366028093620290936302A0935A
:100B80006402B093650280915E0290915F02A09131
:100B90006002B09161020196A11DB11D80935E02B9
:100BA00090935F02A0936002B0936102BF91AF91F6
:100BB0009F918F913F912F910F900FBE0F901F909B
:100BC00018959B01AC017FB7F89480915E029091DB
:100BD0005F02A0916002B091610266B5A89B05C05A
:100BE0006F3F19F00196A11DB11D7FBFBA2FA92F2C
:100BF000982F8827860F911DA11DB11D62E0880FD7
:100C0000991FAA1FBB1F6A95D1F7BC012DC0FFB762
:100C1000F89480915E0290915F02A0916002B09181
:100C20006102E6B5A89B05C0EF3F19F00196A11D32
:100C3000B11DFFBFBA2FA92F982F88278E0F911DA6
:100C4000A11DB11DE2E0880F991FAA1FBB1FEA95E5
:100C5000D1F7861B970B885E9340C8F22150304035
:100C60004040504068517C4F2115310541055105E8
:100C700071F60895789484B5826084BD84B58160EE
:100C800084BD85B5826085BD85B5816085BDEEE694
:100C9000F0E0808181608083E1E8F0E01082808173
:100CA00082608083808181608083E0E8F0E08081E1
:100CB00081608083E1EBF0E0808184608083E0EB01
:100CC000F0E0808181608083EAE7F0E080818460E9
:100CD0008083808182608083808181608083808145
:100CE000806880831092C1000895982F8E3008F09C
:100CF0009E509770809161018295880F880F807C4B
:100D0000892B80937C0080917A00806480937A00A4
:100D100080917A0086FDFCCF209178004091790087
:100D2000942F80E030E0282B392BC9010895CF9310
:100D3000DF93482F50E0CA0186569F4FFC01349143
:100D40004A575F4FFA018491882369F190E0880F38
:100D5000991FFC01E859FF4FA591B491FC01EE5891
:100D6000FF4FC591D491662351F42FB7F8948C911D
:100D7000932F909589238C93888189230BC06230AF
:100D800061F42FB7F8948C91932F909589238C93CD
:100D90008881832B88832FBF06C09FB7F8948C91DE
:100DA000832B8C939FBFDF91CF91089508951F925D
:100DB0000F920FB60F9211242F933F934F938F935F
:100DC0009F93EF93FF938091C00082FD1DC04091DF
:100DD000C6002091A7023091A8022F5F3F4F2F73CA
:100DE00030708091A9029091AA022817390771F0FA
:100DF000E091A702F091A802E959FD4F408330939A
:100E0000A8022093A70202C08091C600FF91EF9133
:100E10009F918F914F913F912F910F900FBE0F9007
:100E20001F901895E091FB02F091FC02E05CFF4FEF
:100E30008191919120813181821B930B8F739070EE
:100E4000892B11F00E94D60608951F920F920FB6BB
:100E50000F9211242F933F938F939F93EF93FF93C0
:100E60002091EB023091EC028091ED029091EE0224
:100E70002817390731F48091C1008F7D8093C1001C
:100E800014C0E091ED02F091EE02E555FD4F208196
:100E90008091ED029091EE0201968F739070909385
:100EA000EE028093ED022093C600FF91EF919F9197
:100EB0008F913F912F910F900FBE0F901F9018951B
:100EC000AF92BF92DF92EF92FF920F931F93CF9357
:100ED000DF93EC017A018B01DD24403081EE58076D
:100EE00080E0680780E0780711F0DD24D39491E07A
:100EF000A92EB12CEC89FD89DD2069F0C50108A07F
:100F000002C0880F991F0A94E2F7808360E079E0BD
:100F10008DE390E005C0108260E874E88EE190E017
:100F2000A80197010E94CE0A215030404040504015
:100F3000569547953795279580E12030380720F062
:100F4000DD2011F0DD24D6CFE889F9893083EA89E4
:100F5000FB89208319A2EE89FF89408121E030E0DE
:100F6000C9010C8C02C0880F991F0A94E2F7482B24
:100F70004083EE89FF894081C9010D8C02C0880F32
:100F8000991F0A94E2F7482B4083EE89FF8940813C
:100F9000C9010E8C02C0880F991F0A94E2F7482BF2
:100FA0004083EE89FF8980810F8C02C0220F331F9E
:100FB0000A94E2F7209528232083DF91CF911F9197
:100FC0000F91FF90EF90DF90BF90AF900895CF9377
:100FD000DF93DC011E968D919C911F97EC01C05C04
:100FE000DF4FFC01EE5BFF4F2881398180819181C9
:100FF00028173907C9F75696ED91FC91579740810C
:1010000021E030E0C9015C960C905C9702C0880F2B
:10101000991F0A94E2F78095842380835696ED9178
:10102000FC9157974081C9015D960C905D9702C075
:10103000880F991F0A94E2F780958423808356963F
:10104000ED91FC9157974081C9015E960C905E9797
:1010500002C0880F991F0A94E2F780958423808349
:101060005696ED91FC91579780815F960C905F9713
:1010700002C0220F331F0A94E2F720952823208311
:101080001C96ED91FC911D97EE5BFF4F8081918145
:1010900092938293DF91CF910895DC011C96ED919C
:1010A000FC911D97E05CFF4F2191319180819181EE
:1010B000281B390B2F733070C9010895DC011C9671
:1010C000ED91FC911D97E05CFF4F20813181E05450
:1010D000F040DF01AE5BBF4F8D919C9111972817B7
:1010E000390719F42FEF3FEF07C08D919C91E80F5E
:1010F000F91F8081282F30E0C9010895DC011C967A
:10110000ED91FC911D97E05CFF4F20813181E0540F
:10111000F040DF01AE5BBF4F8D919C911197281776
:10112000390719F42FEF3FEF10C08D919C91119763
:10113000E80FF91F20818D919C91119701968F7373
:10114000907011969C938E9330E0C9010895DC0154
:1011500091968C919197882339F05496ED91FC915A
:101160005597808186FFF9CF91961C920895CF9371
:10117000DF93EC01EE85FF85E05CFF4F208131813C
:10118000E054F0402F5F3F4F2F733070DF01AE5BB4
:10119000BF4F8D919C91119728173907D1F3E05CCF
:1011A000FF4F80819181E054F040E80FF91F608388
:1011B000EE85FF85E05CFF4F31832083EE89FF8958
:1011C000208181E090E00F8C02C0880F991F0A9463
:1011D000E2F7282B208381E089A3EC89FD898081B7
:1011E0008064808381E090E0DF91CF910895109238
:1011F000F2021092F10288EE93E0A0E0B0E080935A
:10120000F3029093F402A093F502B093F60286E6FF
:1012100091E09093F0028093EF0287E692E0909342
:10122000FC028093FB028BEA92E09093FE02809393
:10123000FD0285EC90E0909300038093FF0284EC24
:1012400090E0909302038093010380EC90E09093F0
:1012500004038093030381EC90E090930603809352
:10126000050382EC90E0909308038093070386ECDB
:1012700090E090930A038093090384E080930B032A
:1012800083E080930C0387E080930D0385E08093D7
:101290000E0381E080930F030895CF93DF930E94A4
:1012A0003A060E94AF02C2E1D7E00E9412042097E2
:1012B000E1F30E941207F9CFCF92DF92EF92FF92F3
:1012C0000F931F93CF93DF937C016B018A01C0E0E2
:1012D000D0E00FC0D6016D916D01D701ED91FC9169
:1012E0000190F081E02DC7010995C80FD91F015069
:1012F00010400115110571F7CE01DF91CF911F91BB
:101300000F91FF90EF90DF90CF900895EF92FF92B2
:101310000F931F937B018C01611571058105910568
:1013200029F420E030E040E050E00BC00E94DF00F4
:10133000A80197010E94F00AAC01CB01DA019C01DF
:10134000AD01B901CA011F910F91FF90EF9008956F
:10135000009729F0BC0180E090E00E94E40008952D
:1013600004D06894B111E2C00895AED088F09F57C0
:1013700090F0B92F9927B751A0F0D1F0660F771FE1
:10138000881F991F1AF0BA95C9F712C0B13081F0C1
:10139000CCD0B1E00895C9C0672F782F8827B85FF7
:1013A00039F0B93FCCF3869577956795B395D9F722
:1013B0003EF490958095709561957F4F8F4F9F4F2C
:1013C0000895E89409C097FB3EF490958095709538
:1013D00061957F4F8F4F9F4F9923A9F0F92F96E981
:1013E000BB279395F695879577956795B795F111F6
:1013F000F8CFFAF4BB0F11F460FF1BC06F5F7F4F93
:101400008F4F9F4F16C0882311F096E911C07723A4
:1014100021F09EE8872F762F05C0662371F096E8AD
:10142000862F70E060E02AF09A95660F771F881F7C
:10143000DAF7880F9695879597F908955FD080F031
:101440009F3740F491110EF071C060E070E080E8C9
:101450009FEB089526F41B16611D711D811D01C0AF
:101460001BC0882371F4772321F09850872B762FA7
:1014700007C0662311F499270DC09051862B70E0A8
:1014800060E02AF09A95660F771F881FDAF7880FB9
:101490009695879597F908959F3F49F0915028F4C4
:1014A000869577956795B7959F5F80389F4F880F92
:1014B0009695879597F9089557FD9058440F551FB5
:1014C00059F05F3F71F04795880F97FB991F61F0C6
:1014D0009F3F79F087950895121613061406551F3D
:1014E000F2CF4695F1DF08C0161617061806991FA9
:1014F000F1CF86957105610508940895E5DFA0F0A8
:10150000BEE7B91788F4BB279F3860F41616B11DE3
:10151000672F782F8827985FF7CF869577956795FF
:10152000B11D93959639C8F30895E894BB276627B3
:101530007727CB0197F90895629FD001739FF0013F
:10154000829FE00DF11D649FE00DF11D929FF00D53
:10155000839FF00D749FF00D659FF00D9927729F8A
:10156000B00DE11DF91F639FB00DE11DF91FBD0115
:10157000CF011124089597FB092E07260AD077FD85
:1015800004D049D006D000201AF4709561957F4FA1
:101590000895F6F7909581959F4F0895A1E21A2E30
:1015A000AA1BBB1BFD010DC0AA1FBB1FEE1FFF1F07
:1015B000A217B307E407F50720F0A21BB30BE40B57
:1015C000F50B661F771F881F991F1A9469F760959E
:1015D0007095809590959B01AC01BD01CF01089558
:1015E00097FB092E05260ED057FD04D0D7DF0AD071
:1015F000001C38F450954095309521953F4F4F4F42
:101600005F4F0895F6F790958095709561957F4F9F
:101610008F4F9F4F0895AA1BBB1B51E107C0AA1F04
:10162000BB1FA617B70710F0A61BB70B881F991F83
:101630005A95A9F780959095BC01CD010895EE0FBC
:10164000FF1F0590F491E02D09942F923F924F9245
:101650005F926F927F928F929F92AF92BF92CF9242
:10166000DF92EF92FF920F931F93CF93DF93CDB74B
:10167000DEB7CA1BDB0B0FB6F894DEBF0FBECDBFC3
:1016800009942A88398848885F846E847D848C8494
:101690009B84AA84B984C884DF80EE80FD800C819D
:1016A0001B81AA81B981CE0FD11D0FB6F894DEBF80
:0C16B0000FBECDBFED010895F894FFCFF0
:1016BC00332E34000100000005000700000002007A
:1016CC0004008025000040380000004B00008070B2
:1016DC0000000096000000E10000002C010000C298
:1016EC000100400D030090D0030020A107004042F0
:1016FC000F0080250000802500008025000080253B
:10170C0000001100A400D0E1F3F3D7EFF2E4FF15D1
:10171C00000100000000B7085C094D087E085E0857
:02172C00A7080C
:00000001FF
