:200000000C9462000C948A000C948A000C948A000C948A000C948A000C948A000C948A00B8
:200020000C948A000C948A000C948A000C948A000C948A000C948A000C948A000C948A0070
:200040000C947F050C948A000C94BD060C940B070C948A000C948A000C948A000C948A0095
:200060000C948A000C948A0000000000240027002A0000000000250028002B00000000003F
:20008000230026002900040404040404040402020202020203030303030301020408102071
:2000A0004080010204081020010204081020000000070002010000030406000000000000EB
:2000C0000000DD0811241FBECFEFD4E0DEBFCDBF11E0A0E0B1E0E8E8F6E102C005900D92EF
:2000E000AA36B107D9F713E0AAE6B1E001C01D92A530B107E1F710E0C4ECD0E004C02297E2
:20010000FE010E94070BC23CD107C9F70E9433090C94420B0C940000A0E0B0E0E2E9F0E080
:200120000C94130BEC01A880B980CA80DB80A114B104C104D10441F484E2A82E89EDB82E3D
:200140008BE5C82E87E0D82EC601B5012DE133EF41E050E00E94D60A27EA31E440E050E0D6
:200160000E94820A7B018C01C601B5012DE133EF41E050E00E94D60ACA01B9012CEE34EF06
:200180004FEF5FEF0E94820A6E0D7F1D801F911F97FF04C061507040804090486883798305
:2001A0008A839B839B01AC015F77B901CA01CDB7DEB7EAE00C942F0B0E948C00089584E084
:2001C00091E00E948C00089560930401709305018093060190930701089581E090E090930C
:2001E0007A018093790180916A0190916B0160E470E00E94A10A6AE070E00E94A10A9C0189
:200200008FE190E090937801809377012230310531F48DE190E09093780180937701C9015B
:200220000597029730F487E190E090937801809377012130310509F447C02115310549F432
:2002400081E190E090937601809375018FE190E030C02730310539F480E190E090937601B4
:200260008093750126C02430310519F085E190E002C084E090E0909376018093750122309B
:20028000310519F487E190E014C02330310519F485E190E00EC02430310519F48CE190E0C1
:2002A00008C02530310519F02930310539F48DE190E0909374018093730108958FE190E0AC
:2002C0009093740180937301089580916A0190916B0160E470E00E94A10A9C018C33910586
:2002E0004CF08091790190917A01806290937A0180937901223331054CF08091770190911D
:20030000780180629093780180937701283231054CF08091750190917601806290937601F4
:20032000809375012E3131054CF080917501909176018064909376018093750124313105B2
:200340004CF08091730190917401806490937401809373012A3031054CF0809171019091D3
:20036000720180649093720180937101089510927201109271011092740110927301109276
:20038000760110927501109278011092770110927A01109279010E94ED000E94650108952C
:2003A00083EE92E00E94330818161906CCF783EE92E00E9464080895BC0181E592E00E94A8
:2003C0006C0590E0089580E090E00E94DC01009721F090936B0180936A0108959C01462FEC
:2003E00081E592E0B9010E9473050895BC0181E592E040E00E9473050895CF93DF93C0E0D4
:20040000D0E081E592E0BE0140E00E947305219682E0C030D807A9F7DF91CF9108956F9265
:200420007F928F929F92AF92BF92CF92DF92EF92FF920F931F93CF93DF938C0183EE92E04B
:200440000E94CD0764E670E080E090E00E94C70510927201109271011092740110927301F8
:200460001092760110927501109278011092770110927A011092790110936D0100936C01CC
:200480000F701070000F111F000F111F0E5E1E4FF801C080D180E280F38080916E0188237C
:2004A00009F448C0C3E1D0E0E1E08E2E912CA12CB12C74E0672E712CA50194010C2E04C040
:2004C000220F331F441F551F0A94D2F7CE0183709070F301E81BF90B8F01000F111F0F5868
:2004E0001E4F60E070E0DA01C9018C219D21AE21BF2182179307A407B50711F461E070E010
:20050000CE01959587959595879502C0660F771F8A95E2F7EE0FFF1FEF58FE4F80819181F9
:20052000682B792BF801718360832197FFEFCF3FDF0711F683EE92E0B701A6010E944607E2
:20054000DF91CF911F910F91FF90EF90DF90CF90BF90AF909F908F907F906F9008951F9366
:2005600010926E018BB180668BB95D9883E090E00E94DC010E940F0211E0812F61E00E9486
:200580007D061F5F1E30C9F70E94E30110927F0168EE73E080E090E00E94C705E0E8F1E024
:2005A0001192119282E0E834F807D1F7109249021092480210924A0210924B0210924C020A
:2005C00010924D0210924F0210924E0210926B0110926A0181E080936E011F910895CF9398
:2005E000DF93EC01803991050CF0BDC00E94D0019C01C038D105A1F4805490408034910573
:2006000008F493C080916A0190916B012034310514F48F7390708217930709F0F9C085C0C4
:20062000C138D10551F5E0E8F1E01192119282E0E834F807D1F71092490210924802109206
:200640004A0210924B0210924C0210924D0210924F0210924E0210926B0110926A0185E019
:200660000E945B060E948E0968EE73E080E090E00E946C090E94C705CBC0C238D10571F480
:2006800080916A0190916B018217930709F050C08F3F910509F449C0019643C0C338D10540
:2006A00069F480916A0190916B018217930709F053C080389105C9F1019733C0C438D10530
:2006C000A9F480916A0190916B018217930709F09FC00E94D0019C018058904080389105E3
:2006E00020F530936B0120936A011FC0C538D105F9F480916A0190916B018217930709F0C4
:2007000087C080E090E00E94F60160916A0170916B0180E090E00E94EE0180E090E00E948D
:20072000DC0190936B0180936A010E94B70170C0C638D10589F480916A0190916B01821752
:20074000930709F065C080E090E00E94F60110926B0110926A015CC0CF38D10509F058C053
:200760000E94FD0155C0803A9105ECF48E3991050CF44CC08E39910589F483E090E00E94DC
:20078000F60160916C0170916D0183E090E00E94EE0183E090E00E94DC0138C083E090E014
:2007A0000E94F60135C0803B910594F50E94D0019C01C03AD10561F580916A0190916B0192
:2007C00082179307A9F464E670E080E090E00E94C705E091E302F091E4020280F381E02DB1
:2007E00083EE92E060E071E043E050E0099510C083EE92E00E94CD076CE271E080E090E0FC
:200800000E94C70580916C0190916D010E940F02DF91CF9108950F931F938091480290916D
:200820004902853691050CF4C2C083EE92E00E943308181619060CF046C083EE92E00E9406
:200840006408AC019093700180936F0187FF21C010927F01809150028823B9F480916A01A8
:2008600090916B014817590739F410927C0110927B0181E080937F01109250024F3F5105F6
:2008800011F581E0809350021EC0CA010E94EF0218C020917B0130917C01253031058CF402
:2008A00080917F01882369F0F901EE0FFF1FEF58FE4F518340832F5F3F4F30937C01209354
:2008C0007B01109250028091520185B9809154018BB94BB160917D0170917E01DB01AA0FDC
:2008E000BB1FFD01EF58FE4F20813181C9018170907006E0880F991F0A95E1F7482B4BB95B
:2009000045B1C90182709070880F991F880F991F482B45B945B1C90184709070959587951C
:20092000482B45B945B1C9018870907095958795482B45B94BB1C9018071907095958795DA
:20094000482B4BB94BB1C9018072907095958795482B4BB985B12074307035952795822B0E
:2009600085B9A85FBE4F81E090E00C9002C0880F991F0A94E2F72FEF30E0281B390B6230E9
:20098000710519F06430710521F485B1822385B903C08BB182238BB9CB01019665E070E0C0
:2009A0000E94A10A90937E0180937D0192C08436910509F461C08C01000F111F00581E4F66
:2009C000F80120813181442737FD4095542F80914A0290914B02A0914C02B0914D02821B5D
:2009E000930BA40BB50B80934A0290934B02A0934C02B0934D02809156010E945B06F801A4
:200A0000918380830091480210914902F801EE0FFF1FE058FE4F60817181882777FD809554
:200A2000982F20914A0230914B0240914C0250914D02620F731F841F951F60934A027093F9
:200A40004B0280934C0290934D0224E630E040E050E00E94D60A30934F0220934E020F5F05
:200A60001F4F109349020093480261E070E080E090E00E94C7052DC00E94E30180916A017F
:200A800090916B01892BD1F480914E0290914F0260E170E00E94A10A882777FD8095982FA0
:200AA0000E94C9090E94040A0E9496092FEB30E0261B370B30936B0120936A01809148027C
:200AC00090914902019690934902809348020E94B7011F910F910895F999FECF72BD61BD55
:200AE000F89A80B50895F999FECF1FBA72BD61BD40BD0FB6F894FA9AF99A0FBE08951F927D
:200B00000F920FB60F9211242F933F938F939F93AF93BF938091560290915702A0915802AF
:200B2000B091590230915A020196A11DB11D232F2D5F2D3720F02D570196A11DB11D20932D
:200B40005A028093560290935702A0935802B09359028091520290915302A0915402B09184
:200B600055020196A11DB11D8093520290935302A0935402B0935502BF91AF919F918F9119
:200B80003F912F910F900FBE0F901F9018959B01AC017FB7F8948091520290915302A09147
:200BA0005402B091550266B5A89B05C06F3F19F00196A11DB11D7FBFBA2FA92F982F8827D5
:200BC000860F911DA11DB11D62E0880F991FAA1FBB1F6A95D1F7BC012DC0FFB7F89480914E
:200BE000520290915302A0915402B0915502E6B5A89B05C0EF3F19F00196A11DB11DFFBF51
:200C0000BA2FA92F982F88278E0F911DA11DB11DE2E0880F991FAA1FBB1FEA95D1F7861B2A
:200C2000970B885E9340C8F2215030404040504068517C4F211531054105510571F608951E
:200C4000789484B5826084BD84B5816084BD85B5826085BD85B5816085BDEEE6F0E0808171
:200C600081608083E1E8F0E01082808182608083808181608083E0E8F0E08081816080831D
:200C8000E1EBF0E0808184608083E0EBF0E0808181608083EAE7F0E08081846080838081C6
:200CA000826080838081816080838081806880831092C1000895982F8E3008F09E5097700C
:200CC000809158018295880F880F807C892B80937C0080917A00806480937A0080917A009F
:200CE00086FDFCCF2091780040917900942F80E030E0282B392BC9010895CF93DF93482F97
:200D000050E0CA0186569F4FFC0134914A575F4FFA018491882369F190E0880F991FFC012C
:200D2000E859FF4FA591B491FC01EE58FF4FC591D491662351F42FB7F8948C91932F909519
:200D400089238C93888189230BC0623061F42FB7F8948C91932F909589238C938881832B69
:200D600088832FBF06C09FB7F8948C91832B8C939FBFDF91CF91089508951F920F920FB669
:200D80000F9211242F933F934F938F939F93EF93FF938091C00082FD1DC04091C60020912A
:200DA0009B0230919C022F5F3F4F2F73307080919D0290919E022817390771F0E0919B027A
:200DC000F0919C02E55AFD4F408330939C0220939B0202C08091C600FF91EF919F918F91FC
:200DE0004F913F912F910F900FBE0F901F901895E091EF02F091F002E05CFF4F8191919189
:200E000020813181821B930B8F739070892B11F00E94BC0608951F920F920FB60F9211249F
:200E20002F933F938F939F93EF93FF932091DF023091E0028091E1029091E2022817390709
:200E400031F48091C1008F7D8093C10014C0E091E102F091E202E156FD4F20818091E10216
:200E60009091E20201968F7390709093E2028093E1022093C600FF91EF919F918F913F912E
:200E80002F910F900FBE0F901F901895AF92BF92DF92EF92FF920F931F93CF93DF93EC0101
:200EA0007A018B01DD24403081EE580780E0680780E0780711F0DD24D39491E0A92EB12CB0
:200EC000EC89FD89DD2069F0C50108A002C0880F991F0A94E2F7808360E079E08DE390E04F
:200EE00005C0108260E874E88EE190E0A80197010E94B40A215030404040504056954795BF
:200F00003795279580E12030380720F0DD2011F0DD24D6CFE889F9893083EA89FB89208365
:200F200019A2EE89FF89408121E030E0C9010C8C02C0880F991F0A94E2F7482B4083EE898E
:200F4000FF894081C9010D8C02C0880F991F0A94E2F7482B4083EE89FF894081C9010E8C03
:200F600002C0880F991F0A94E2F7482B4083EE89FF8980810F8C02C0220F331F0A94E2F75C
:200F8000209528232083DF91CF911F910F91FF90EF90DF90BF90AF900895CF93DF93DC0135
:200FA0001E968D919C911F97EC01C05CDF4FFC01EE5BFF4F288139818081918128173907BC
:200FC000C9F75696ED91FC915797408121E030E0C9015C960C905C9702C0880F991F0A94A0
:200FE000E2F78095842380835696ED91FC9157974081C9015D960C905D9702C0880F991F55
:201000000A94E2F78095842380835696ED91FC9157974081C9015E960C905E9702C0880F4C
:20102000991F0A94E2F78095842380835696ED91FC91579780815F960C905F9702C0220F62
:20104000331F0A94E2F72095282320831C96ED91FC911D97EE5BFF4F8081918192938293CF
:20106000DF91CF910895DC011C96ED91FC911D97E05CFF4F2191319180819181281B390B1D
:201080002F733070C9010895DC011C96ED91FC911D97E05CFF4F20813181E054F040DF0138
:2010A000AE5BBF4F8D919C9111972817390719F42FEF3FEF07C08D919C91E80FF91F80812C
:2010C000282F30E0C9010895DC011C96ED91FC911D97E05CFF4F20813181E054F040DF01D3
:2010E000AE5BBF4F8D919C9111972817390719F42FEF3FEF10C08D919C911197E80FF91F3C
:2011000020818D919C91119701968F73907011969C938E9330E0C9010895DC0191968C9113
:201120009197882339F05496ED91FC915597808186FFF9CF91961C920895CF93DF93EC0151
:20114000EE85FF85E05CFF4F20813181E054F0402F5F3F4F2F733070DF01AE5BBF4F8D91E4
:201160009C91119728173907D1F3E05CFF4F80819181E054F040E80FF91F6083EE85FF856D
:20118000E05CFF4F31832083EE89FF89208181E090E00F8C02C0880F991F0A94E2F7282B87
:2011A000208381E089A3EC89FD8980818064808381E090E0DF91CF9108951092E6021092B2
:2011C000E50288EE93E0A0E0B0E08093E7029093E802A093E902B093EA028DE591E09093D3
:2011E000E4028093E3028BE592E09093F0028093EF028FE992E09093F2028093F10285EC9E
:2012000090E09093F4028093F30284EC90E09093F6028093F50280EC90E09093F80280932C
:20122000F70281EC90E09093FA028093F90282EC90E09093FC028093FB0286EC90E0909397
:20124000FE028093FD0284E08093FF0283E08093000387E08093010385E08093020381E02F
:20126000809303030895CF93DF930E9420060E94AF02C8EFD6E00E940B042097E1F30E947E
:20128000F806F9CFCF92DF92EF92FF920F931F93CF93DF937C016B018A01C0E0D0E00FC0E9
:2012A000D6016D916D01D701ED91FC910190F081E02DC7010995C80FD91F0150104001150D
:2012C000110571F7CE01DF91CF911F910F91FF90EF90DF90CF900895EF92FF920F931F93C2
:2012E0007B018C01611571058105910529F420E030E040E050E00BC00E94DF00A8019701D3
:201300000E94D60AAC01CB01DA019C01AD01B901CA011F910F91FF90EF900895009729F07C
:20132000BC0180E090E00E94E400089504D06894B111E2C00895AED088F09F5790F0B92FD8
:201340009927B751A0F0D1F0660F771F881F991F1AF0BA95C9F712C0B13081F0CCD0B1E0A0
:201360000895C9C0672F782F8827B85F39F0B93FCCF3869577956795B395D9F73EF49095D2
:201380008095709561957F4F8F4F9F4F0895E89409C097FB3EF490958095709561957F4FFA
:2013A0008F4F9F4F9923A9F0F92F96E9BB279395F695879577956795B795F111F8CFFAF4A9
:2013C000BB0F11F460FF1BC06F5F7F4F8F4F9F4F16C0882311F096E911C0772321F09EE899
:2013E000872F762F05C0662371F096E8862F70E060E02AF09A95660F771F881FDAF7880FBD
:201400009695879597F908955FD080F09F3740F491110EF071C060E070E080E89FEB0895BF
:2014200026F41B16611D711D811D01C01BC0882371F4772321F09850872B762F07C06623D1
:2014400011F499270DC09051862B70E060E02AF09A95660F771F881FDAF7880F969587952E
:2014600097F908959F3F49F0915028F4869577956795B7959F5F80389F4F880F969587953A
:2014800097F9089557FD9058440F551F59F05F3F71F04795880F97FB991F61F09F3F79F07F
:2014A00087950895121613061406551FF2CF4695F1DF08C0161617061806991FF1CF869576
:2014C0007105610508940895E5DFA0F0BEE7B91788F4BB279F3860F41616B11D672F782F6E
:2014E0008827985FF7CF869577956795B11D93959639C8F30895E894BB2766277727CB01EB
:2015000097F90895629FD001739FF001829FE00DF11D649FE00DF11D929FF00D839FF00D62
:20152000749FF00D659FF00D9927729FB00DE11DF91F639FB00DE11DF91FBD01CF0111245E
:20154000089597FB092E07260AD077FD04D049D006D000201AF4709561957F4F0895F6F766
:20156000909581959F4F0895A1E21A2EAA1BBB1BFD010DC0AA1FBB1FEE1FFF1FA217B30733
:20158000E407F50720F0A21BB30BE40BF50B661F771F881F991F1A9469F760957095809553
:2015A00090959B01AC01BD01CF01089597FB092E05260ED057FD04D0D7DF0AD0001C38F4C0
:2015C00050954095309521953F4F4F4F5F4F0895F6F790958095709561957F4F8F4F9F4FA3
:2015E0000895AA1BBB1B51E107C0AA1FBB1FA617B70710F0A61BB70B881F991F5A95A9F72B
:2016000080959095BC01CD010895EE0FFF1F0590F491E02D09942F923F924F925F926F9224
:201620007F928F929F92AF92BF92CF92DF92EF92FF920F931F93CF93DF93CDB7DEB7CA1BAB
:20164000DB0B0FB6F894DEBF0FBECDBF09942A88398848885F846E847D848C849B84AA844A
:20166000B984C884DF80EE80FD800C811B81AA81B981CE0FD11D0FB6F894DEBF0FBECDBFF7
:20168000ED010895F894FFCF332E32000100000005000700000002000400802500004038A2
:2016A0000000004B0000807000000096000000E10000002C010000C20100400D030090D0D8
:2016C000030020A1070040420F00802500008025000080250000802500001100A400150050
:2016E00001000000009D0842093308640844088D0800FFFFFFFFFFFFFFFFFFFFFFFFFFFF7F
:20170000FFFFFFFFFFFFFFFFFFFFFFFFFFFFFFFFFFFFFFFFFFFFFFFFFFFFFFFFFFFFFFFFE9
:20172000FFFFFFFFFFFFFFFFFFFFFFFFFFFFFFFFFFFFFFFFFFFFFFFFFFFFFFFFFFFFFFFFC9
:20174000FFFFFFFFFFFFFFFFFFFFFFFFFFFFFFFFFFFFFFFFFFFFFFFFFFFFFFFFFFFFFFFFA9
:20176000FFFFFFFFFFFFFFFFFFFFFFFFFFFFFFFFFFFFFFFFFFFFFFFFFFFFFFFFFFFFFFFF89
:203800000C94341C0C94511C0C94511C0C94511C0C94511C0C94511C0C94511C0C94511C5D
:203820000C94511C0C94511C0C94511C0C94511C0C94511C0C94511C0C94511C0C94511C20
:203840000C94511C0C94511C0C94511C0C94511C0C94511C0C94511C0C94511C0C94511C00
:203860000C94511C0C94511C11241FBECFEFD4E0DEBFCDBF11E0A0E0B1E0E4EAFFE302C00D
:2038800005900D92A230B107D9F712E0A2E0B1E001C01D92AD30B107E1F70E94361D0C9423
:2038A000D01F0C94001C982F9595959595959595905D8F708A307CF0282F295A8091C00031
:2038C00085FFFCCF9093C6008091C00085FFFCCF2093C6000895282F205DF0CF982F80910F
:2038E000C00085FFFCCF9093C6000895EF92FF920F931F93EE24FF2487018091C00087FDBB
:2039000017C00894E11CF11C011D111D81E4E81682E4F8068FE0080780E0180770F3E09146
:203920000401F091050109958091C00087FFE9CF8091C6001F910F91FF90EF9008950E94DA
:20394000761C982F8091C00085FFFCCF9093C60091362CF490330CF09053892F089597553B
:20396000892F08951F930E949F1C182F0E949F1C1295107F810F1F910895882351F0982F79
:2039800091508091C00087FFFCCF8091C6009923B9F708951F93182F0E94761C803249F02C
:2039A000809103018F5F809303018530C1F01F9108958091C00085FFFCCF84E18093C600DC
:2039C0008091C00085FFFCCF1093C6008091C00085FFFCCF80E18093C6001F910895E09146
:2039E0000401F091050109951F9108950E94761C803241F0809103018F5F8093030185306A
:203A000081F008958091C00085FFFCCF84E18093C6008091C00085FFFCCF80E18093C600E0
:203A20000895E0910401F09105010995089510920A028823D1F090E040E951E02D9A28EEF0
:203A400033E0FA013197F1F721503040D1F72D9828EE33E0FA013197F1F721503040D1F7BD
:203A60009F5F981758F380930A0208953F924F925F926F927F928F929F92AF92BF92CF9298
:203A8000DF92EF92FF920F931F93CF93DF93000083E38093C4001092C50088E18093C1009A
:203AA00086E08093C2005098589A259A81E00E94171D44E1F42E3EE1E32E24E9D22E96E001
:203AC000C92E80E1B82EAA24A39401E4902E16E5812EB2E57B2EA0E26A2EF9E45F2EE3E5CA
:203AE0004E2E70E5372E0E94761C8033B1F1813309F441C0803409F479C0813409F48CC06D
:203B0000823471F1853409F47BC0803531F1823521F1813511F1853509F48DC0863509F488
:203B20009DC0843609F4AEC0843709F41BC1853709F485C1863709F47AC0809103018F5F79
:203B400080930301853079F6E0910401F091050109950E94761C803351F60E94F61CC3CF1B
:203B600093E18091C00087FFFCCF8091C6009923A1F39150F6CF0E94761C8032F1F6809104
:203B8000C00085FFFCCFF092C6008091C00085FFFCCF9092C6008091C00085FFFCCF809294
:203BA000C6008091C00085FFFCCF7092C6008091C00085FFFCCF6092C6008091C00085FF2A
:203BC000FCCF5092C6008091C00085FFFCCF4092C6008091C00085FFFCCF3092C600809101
:203BE000C00085FFFCCFB092C6007DCF0E94761C863808F4B2CF0E94761C0E94F61C73CFC9
:203C000094E08091C00087FFFCCF8091C600992309F4A3CF9150F5CF0E94761C8038D1F0BA
:203C2000813861F1823809F499C0883979F080E00E94CA1C58CF0E94761C809306010E9440
:203C4000761C809307010E94F61C4DCF83E00E94CA1C49CF82E00E94CA1C45CF0E94761CB2
:203C6000803309F486C192E08091C00087FFFCCF8091C6009923D9F29150F6CF81E00E94B2
:203C8000CA1C31CF0E94761C809309020E94761C8093080280910C028E7F80930C020E94AC
:203CA000761C853429F480910C02816080930C028091080290910902892B89F000E010E037
:203CC0000E94761CF801E85FFE4F80830F5F1F4F80910802909109020817190788F30E94A1
:203CE000761C803209F029CF80910C0280FFD1C04091060150910701440F551F50930701ED
:203D000040930601A0910802B09109021097C9F0E8E0F1E09A01BD016E0F7F1FF999FECF76
:203D200032BD21BD819180BDFA9AF99A2F5F3F4FE617F70799F74A0F5B1F50930701409308
:203D400006018091C00085FFFCCFF092C6008091C00085FFFCCFB092C600C5CE80E10E9436
:203D6000CA1CC1CE0E94761C809309020E94761C809308028091060190910701880F991F9B
:203D800090930701809306010E94761C853409F47AC080910C028E7F80930C020E94761C39
:203DA000803209F0A0CE8091C00085FFFCCFF092C600A0910802B09109021097B9F1809199
:203DC0000C02182F1170082F0270E0910601F09107019F012F5F3F4FB90140E050E0112369
:203DE000B1F4002339F494918091C00085FFFCCF9093C6004F5F5F4FCB010196F9014A1786
:203E00005B0780F4BC012F5F3F4F112351F3F999FECFF2BDE1BDF89A90B58091C00085FFA3
:203E2000FCCFE6CF70930701609306018091C00085FDD9CE8091C00085FFF8CFD4CE0E94A3
:203E4000761C803209F079CE8091C00085FFFCCFF092C6008091C00085FFFCCFE092C6001E
:203E60008091C00085FFFCCFD092C6008091C00085FFFCCFC092C6008091C00085FFFCCFA2
:203E8000B092C60030CE80910C02816080930C0285CF809107018823880F880B8A218093FB
:203EA0000B028091060190910701880F991F90930701809306018091080280FF09C08091AC
:203EC00008029091090201969093090280930802F894F999FECF1127E0910601F0910701A6
:203EE000C8E0D1E08091080290910902103091F40091570001700130D9F303E0009357003A
:203F0000E8950091570001700130D9F301E100935700E895099019900091570001700130B9
:203F2000D9F301E000935700E8951395103498F011270091570001700130D9F305E00093F3
:203F40005700E8950091570001700130D9F301E100935700E8953296029709F0C7CF1030BE
:203F600011F00296E5CF11248091C00085FFE9CEECCE0E94761C0E94761C182F0E94761C16
:203F8000112351F0113021F086E00E94CA1CABCD84E90E94CA1CA7CD8EE10E94CA1CA3CD24
:063FA000F894FFCF800041
:00000001FF
